{
  "_format": "hh-sol-artifact-1",
  "contractName": "Ttscu",
  "sourceName": "contracts/Ttscu.sol",
  "abi": [
    {
      "inputs": [],
      "stateMutability": "nonpayable",
      "type": "constructor"
    },
    {
      "inputs": [],
      "name": "ReentrancyGuardReentrantCall",
      "type": "error"
    },
    {
      "anonymous": false,
      "inputs": [
        {
          "indexed": true,
          "internalType": "address",
          "name": "payee",
          "type": "address"
        },
        {
          "indexed": false,
          "internalType": "uint256",
          "name": "amount",
          "type": "uint256"
        }
      ],
      "name": "Deposited",
      "type": "event"
    },
    {
      "anonymous": false,
      "inputs": [
        {
          "indexed": true,
          "internalType": "address",
          "name": "payee",
          "type": "address"
        },
        {
          "indexed": false,
          "internalType": "uint256",
          "name": "amount",
          "type": "uint256"
        }
      ],
      "name": "Withdrawn",
      "type": "event"
    },
    {
      "inputs": [
        {
          "internalType": "uint256",
          "name": "amount",
          "type": "uint256"
        },
        {
          "internalType": "bytes32",
          "name": "symbol",
          "type": "bytes32"
        }
      ],
      "name": "deposit",
      "outputs": [],
      "stateMutability": "payable",
      "type": "function"
    },
    {
      "inputs": [
        {
          "internalType": "bytes32",
          "name": "symbol",
          "type": "bytes32"
        },
        {
          "internalType": "address",
          "name": "tokenAddress",
          "type": "address"
        }
      ],
      "name": "whiteListToken",
      "outputs": [],
      "stateMutability": "nonpayable",
      "type": "function"
    },
    {
      "inputs": [
        {
          "internalType": "bytes32",
          "name": "",
          "type": "bytes32"
        }
      ],
      "name": "whiteListedTokens",
      "outputs": [
        {
          "internalType": "address",
          "name": "",
          "type": "address"
        }
      ],
      "stateMutability": "view",
      "type": "function"
    },
    {
      "inputs": [
        {
          "internalType": "uint256",
          "name": "amount",
          "type": "uint256"
        },
        {
          "internalType": "bytes32",
          "name": "symbol",
          "type": "bytes32"
        }
      ],
      "name": "withdraw",
      "outputs": [],
      "stateMutability": "nonpayable",
      "type": "function"
    }
  ],
  "bytecode": "0x608060405234801561001057600080fd5b506001600081905580546001600160a01b03191633179055610509806100376000396000f3fe60806040526004361061003f5760003560e01c80638930e0fe14610044578063a8d2021a14610096578063ae78ba86146100b8578063c9630cb0146100d8575b600080fd5b34801561005057600080fd5b5061007a61005f3660046103f1565b6002602052600090815260409020546001600160a01b031681565b6040516001600160a01b03909116815260200160405180910390f35b3480156100a257600080fd5b506100b66100b136600461040a565b6100eb565b005b3480156100c457600080fd5b506100b66100d336600461042c565b61023c565b6100b66100e636600461040a565b6102c4565b33600090815260036020908152604080832084845290915290205482111561014e5760405162461bcd60e51b8152602060048201526011602482015270496e737566666963656e742066756e647360781b60448201526064015b60405180910390fd5b33600090815260036020908152604080832084845290915281208054849190839061017a90849061047e565b90915550506000828152600260205260409081902054905163a9059cbb60e01b8152336004820152602481018590526001600160a01b039091169063a9059cbb906044016020604051808303816000875af11580156101dd573d6000803e3d6000fd5b505050506040513d601f19601f820116820180604052508101906102019190610497565b5060405181815233907f7084f5476618d8e60b11ef0d7d3f06914655adb8793e28ff7f018d4c76d505d59060200160405180910390a2505050565b6001546001600160a01b031633146102965760405162461bcd60e51b815260206004820152601b60248201527f546869732066756e6374696f6e206973206e6f74207075626c696300000000006044820152606401610145565b60009182526002602052604090912080546001600160a01b0319166001600160a01b03909216919091179055565b6102cc6103c7565b336000908152600360209081526040808320848452909152812080548492906102f69084906104c0565b9091555050600081815260026020526040908190205490516323b872dd60e01b8152336004820152306024820152604481018490526001600160a01b03909116906323b872dd906064016020604051808303816000875af115801561035f573d6000803e3d6000fd5b505050506040513d601f19601f820116820180604052508101906103839190610497565b5060405182815233907f2da466a7b24304f47e87fa2e1e5a81b9831ce54fec19055ce277ca2f39ba42c49060200160405180910390a26103c36001600055565b5050565b6002600054036103ea57604051633ee5aeb560e01b815260040160405180910390fd5b6002600055565b60006020828403121561040357600080fd5b5035919050565b6000806040838503121561041d57600080fd5b50508035926020909101359150565b6000806040838503121561043f57600080fd5b8235915060208301356001600160a01b038116811461045d57600080fd5b809150509250929050565b634e487b7160e01b600052601160045260246000fd5b8181038181111561049157610491610468565b92915050565b6000602082840312156104a957600080fd5b815180151581146104b957600080fd5b9392505050565b808201808211156104915761049161046856fea26469706673582212207c88510871d3cf79b33b98f151e99b3efb56d1dabfa1745e26484e98c980785464736f6c63430008140033",
  "linkReferences": {},
  "deployedLinkReferences": {}
}